{
  "contractName": "ahack",
  "abi": [
    {
      "constant": true,
      "inputs": [
        {
          "name": "",
          "type": "uint256"
        }
      ],
      "name": "bbcount",
      "outputs": [
        {
          "name": "bbid",
          "type": "uint256"
        },
        {
          "name": "apos",
          "type": "uint256"
        },
        {
          "name": "bpos",
          "type": "uint256"
        },
        {
          "name": "opos",
          "type": "uint256"
        },
        {
          "name": "abpos",
          "type": "uint256"
        },
        {
          "name": "aneg",
          "type": "uint256"
        },
        {
          "name": "bneg",
          "type": "uint256"
        },
        {
          "name": "abneg",
          "type": "uint256"
        },
        {
          "name": "oneg",
          "type": "uint256"
        }
      ],
      "payable": false,
      "stateMutability": "view",
      "type": "function"
    },
    {
      "constant": true,
      "inputs": [],
      "name": "scount",
      "outputs": [
        {
          "name": "",
          "type": "uint256"
        }
      ],
      "payable": false,
      "stateMutability": "view",
      "type": "function"
    },
    {
      "constant": true,
      "inputs": [],
      "name": "bbcounter",
      "outputs": [
        {
          "name": "",
          "type": "uint256"
        }
      ],
      "payable": false,
      "stateMutability": "view",
      "type": "function"
    },
    {
      "constant": true,
      "inputs": [
        {
          "name": "",
          "type": "uint256"
        }
      ],
      "name": "recpt",
      "outputs": [
        {
          "name": "d_id",
          "type": "uint256"
        },
        {
          "name": "name",
          "type": "string"
        },
        {
          "name": "phno",
          "type": "string"
        },
        {
          "name": "hospital",
          "type": "string"
        },
        {
          "name": "blood_group",
          "type": "string"
        }
      ],
      "payable": false,
      "stateMutability": "view",
      "type": "function"
    },
    {
      "constant": true,
      "inputs": [
        {
          "name": "",
          "type": "uint256"
        }
      ],
      "name": "rec",
      "outputs": [
        {
          "name": "rdID",
          "type": "uint256"
        },
        {
          "name": "rsbbint",
          "type": "uint256"
        },
        {
          "name": "rdbbint",
          "type": "uint256"
        }
      ],
      "payable": false,
      "stateMutability": "view",
      "type": "function"
    },
    {
      "constant": true,
      "inputs": [
        {
          "name": "",
          "type": "uint256"
        }
      ],
      "name": "sent",
      "outputs": [
        {
          "name": "sno",
          "type": "uint256"
        },
        {
          "name": "sdID",
          "type": "uint256"
        },
        {
          "name": "ssbbint",
          "type": "uint256"
        },
        {
          "name": "sdbbint",
          "type": "uint256"
        }
      ],
      "payable": false,
      "stateMutability": "view",
      "type": "function"
    },
    {
      "constant": true,
      "inputs": [],
      "name": "rcount",
      "outputs": [
        {
          "name": "",
          "type": "uint256"
        }
      ],
      "payable": false,
      "stateMutability": "view",
      "type": "function"
    },
    {
      "constant": true,
      "inputs": [],
      "name": "donorCount",
      "outputs": [
        {
          "name": "",
          "type": "uint256"
        }
      ],
      "payable": false,
      "stateMutability": "view",
      "type": "function"
    },
    {
      "constant": true,
      "inputs": [
        {
          "name": "",
          "type": "uint256"
        }
      ],
      "name": "donor",
      "outputs": [
        {
          "name": "d_id",
          "type": "uint256"
        },
        {
          "name": "name",
          "type": "string"
        },
        {
          "name": "phno",
          "type": "string"
        },
        {
          "name": "blood_group",
          "type": "string"
        }
      ],
      "payable": false,
      "stateMutability": "view",
      "type": "function"
    },
    {
      "constant": true,
      "inputs": [],
      "name": "recptCount",
      "outputs": [
        {
          "name": "",
          "type": "uint256"
        }
      ],
      "payable": false,
      "stateMutability": "view",
      "type": "function"
    },
    {
      "constant": true,
      "inputs": [],
      "name": "e",
      "outputs": [
        {
          "name": "",
          "type": "uint256"
        }
      ],
      "payable": false,
      "stateMutability": "view",
      "type": "function"
    },
    {
      "inputs": [],
      "payable": false,
      "stateMutability": "nonpayable",
      "type": "constructor"
    },
    {
      "anonymous": false,
      "inputs": [
        {
          "indexed": true,
          "name": "_dID",
          "type": "uint256"
        }
      ],
      "name": "donorAddedEvent",
      "type": "event"
    },
    {
      "constant": false,
      "inputs": [
        {
          "name": "_dID",
          "type": "uint256"
        },
        {
          "name": "_name",
          "type": "string"
        },
        {
          "name": "_phno",
          "type": "string"
        },
        {
          "name": "_bloodgroup",
          "type": "string"
        }
      ],
      "name": "addDonor",
      "outputs": [],
      "payable": false,
      "stateMutability": "nonpayable",
      "type": "function"
    },
    {
      "constant": false,
      "inputs": [
        {
          "name": "_dID",
          "type": "uint256"
        },
        {
          "name": "_name",
          "type": "string"
        },
        {
          "name": "_phno",
          "type": "string"
        },
        {
          "name": "_hospital",
          "type": "string"
        },
        {
          "name": "_bloodGroup",
          "type": "string"
        }
      ],
      "name": "addRecpt",
      "outputs": [],
      "payable": false,
      "stateMutability": "nonpayable",
      "type": "function"
    },
    {
      "constant": false,
      "inputs": [
        {
          "name": "_bbid",
          "type": "uint256"
        },
        {
          "name": "_apos",
          "type": "uint256"
        },
        {
          "name": "_bpos",
          "type": "uint256"
        },
        {
          "name": "_opos",
          "type": "uint256"
        },
        {
          "name": "_abpos",
          "type": "uint256"
        },
        {
          "name": "_aneg",
          "type": "uint256"
        },
        {
          "name": "_bneg",
          "type": "uint256"
        },
        {
          "name": "_abneg",
          "type": "uint256"
        },
        {
          "name": "_oneg",
          "type": "uint256"
        }
      ],
      "name": "addBBcount",
      "outputs": [],
      "payable": false,
      "stateMutability": "nonpayable",
      "type": "function"
    },
    {
      "constant": false,
      "inputs": [
        {
          "name": "_dID",
          "type": "uint256"
        },
        {
          "name": "_sbbint",
          "type": "uint256"
        },
        {
          "name": "_dbbint",
          "type": "uint256"
        }
      ],
      "name": "s",
      "outputs": [],
      "payable": false,
      "stateMutability": "nonpayable",
      "type": "function"
    },
    {
      "constant": false,
      "inputs": [
        {
          "name": "_dID",
          "type": "uint256"
        },
        {
          "name": "_sbbint",
          "type": "uint256"
        },
        {
          "name": "_dbbint",
          "type": "uint256"
        }
      ],
      "name": "r",
      "outputs": [],
      "payable": false,
      "stateMutability": "nonpayable",
      "type": "function"
    },
    {
      "constant": false,
      "inputs": [],
      "name": "check",
      "outputs": [],
      "payable": false,
      "stateMutability": "nonpayable",
      "type": "function"
    }
  ],
  "bytecode": "0x608060405234801561001057600080fd5b506115ef806100206000396000f3fe608060405234801561001057600080fd5b506004361061010b5760003560e01c80638820446f116100a2578063c407670f11610071578063c407670f14610814578063d28deba914610832578063e7e54d0a14610a25578063fc1c76d114610bab578063ffae15ba14610bc95761010b565b80638820446f14610716578063919840ad1461076d5780639d12811914610777578063b42d75eb146107955761010b565b80635386bd39116100de5780635386bd39146104505780635d756e131461049257806379010783146104d457806385badd27146106c65761010b565b80630e8d6af3146101105780631ea0fcbf1461018a5780634362709b146101a85780634e13d72b146101c6575b600080fd5b61013c6004803603602081101561012657600080fd5b8101908080359060200190929190505050610be7565b604051808a8152602001898152602001888152602001878152602001868152602001858152602001848152602001838152602001828152602001995050505050505050505060405180910390f35b610192610c35565b6040518082815260200191505060405180910390f35b6101b0610c3b565b6040518082815260200191505060405180910390f35b61044e600480360360a08110156101dc57600080fd5b81019080803590602001909291908035906020019064010000000081111561020357600080fd5b82018360208201111561021557600080fd5b8035906020019184600183028401116401000000008311171561023757600080fd5b91908080601f016020809104026020016040519081016040528093929190818152602001838380828437600081840152601f19601f8201169050808301925050505050505091929192908035906020019064010000000081111561029a57600080fd5b8201836020820111156102ac57600080fd5b803590602001918460018302840111640100000000831117156102ce57600080fd5b91908080601f016020809104026020016040519081016040528093929190818152602001838380828437600081840152601f19601f8201169050808301925050505050505091929192908035906020019064010000000081111561033157600080fd5b82018360208201111561034357600080fd5b8035906020019184600183028401116401000000008311171561036557600080fd5b91908080601f016020809104026020016040519081016040528093929190818152602001838380828437600081840152601f19601f820116905080830192505050505050509192919290803590602001906401000000008111156103c857600080fd5b8201836020820111156103da57600080fd5b803590602001918460018302840111640100000000831117156103fc57600080fd5b91908080601f016020809104026020016040519081016040528093929190818152602001838380828437600081840152601f19601f820116905080830192505050505050509192919290505050610c41565b005b6104906004803603606081101561046657600080fd5b81019080803590602001909291908035906020019092919080359060200190929190505050610d15565b005b6104d2600480360360608110156104a857600080fd5b81019080803590602001909291908035906020019092919080359060200190929190505050610d7b565b005b610500600480360360208110156104ea57600080fd5b8101908080359060200190929190505050610df5565b6040518086815260200180602001806020018060200180602001858103855289818151815260200191508051906020019080838360005b83811015610552578082015181840152602081019050610537565b50505050905090810190601f16801561057f5780820380516001836020036101000a031916815260200191505b50858103845288818151815260200191508051906020019080838360005b838110156105b857808201518184015260208101905061059d565b50505050905090810190601f1680156105e55780820380516001836020036101000a031916815260200191505b50858103835287818151815260200191508051906020019080838360005b8381101561061e578082015181840152602081019050610603565b50505050905090810190601f16801561064b5780820380516001836020036101000a031916815260200191505b50858103825286818151815260200191508051906020019080838360005b83811015610684578082015181840152602081019050610669565b50505050905090810190601f1680156106b15780820380516001836020036101000a031916815260200191505b50995050505050505050505060405180910390f35b6106f2600480360360208110156106dc57600080fd5b810190808035906020019092919050505061108b565b60405180848152602001838152602001828152602001935050505060405180910390f35b6107426004803603602081101561072c57600080fd5b81019080803590602001909291905050506110b5565b6040518085815260200184815260200183815260200182815260200194505050505060405180910390f35b6107756110e5565b005b61077f611191565b6040518082815260200191505060405180910390f35b61081260048036036101208110156107ac57600080fd5b81019080803590602001909291908035906020019092919080359060200190929190803590602001909291908035906020019092919080359060200190929190803590602001909291908035906020019092919080359060200190929190505050611197565b005b61081c611265565b6040518082815260200191505060405180910390f35b610a236004803603608081101561084857600080fd5b81019080803590602001909291908035906020019064010000000081111561086f57600080fd5b82018360208201111561088157600080fd5b803590602001918460018302840111640100000000831117156108a357600080fd5b91908080601f016020809104026020016040519081016040528093929190818152602001838380828437600081840152601f19601f8201169050808301925050505050505091929192908035906020019064010000000081111561090657600080fd5b82018360208201111561091857600080fd5b8035906020019184600183028401116401000000008311171561093a57600080fd5b91908080601f016020809104026020016040519081016040528093929190818152602001838380828437600081840152601f19601f8201169050808301925050505050505091929192908035906020019064010000000081111561099d57600080fd5b8201836020820111156109af57600080fd5b803590602001918460018302840111640100000000831117156109d157600080fd5b91908080601f016020809104026020016040519081016040528093929190818152602001838380828437600081840152601f19601f82011690508083019250505050505050919291929050505061126b565b005b610a5160048036036020811015610a3b57600080fd5b810190808035906020019092919050505061131a565b60405180858152602001806020018060200180602001848103845287818151815260200191508051906020019080838360005b83811015610a9f578082015181840152602081019050610a84565b50505050905090810190601f168015610acc5780820380516001836020036101000a031916815260200191505b50848103835286818151815260200191508051906020019080838360005b83811015610b05578082015181840152602081019050610aea565b50505050905090810190601f168015610b325780820380516001836020036101000a031916815260200191505b50848103825285818151815260200191508051906020019080838360005b83811015610b6b578082015181840152602081019050610b50565b50505050905090810190601f168015610b985780820380516001836020036101000a031916815260200191505b5097505050505050505060405180910390f35b610bb3611512565b6040518082815260200191505060405180910390f35b610bd1611518565b6040518082815260200191505060405180910390f35b60026020528060005260406000206000915090508060000154908060010154908060020154908060030154908060040154908060050154908060060154908060070154908060080154905089565b60085481565b60075481565b6006600081548092919060010191905055506040518060a001604052808681526020018581526020018481526020018381526020018281525060016000878152602001908152602001600020600082015181600001556020820151816001019080519060200190610cb392919061151e565b506040820151816002019080519060200190610cd092919061151e565b506060820151816003019080519060200190610ced92919061151e565b506080820151816004019080519060200190610d0a92919061151e565b509050505050505050565b60096000815480929190600101919050555060405180606001604052808481526020018381526020018281525060046000858152602001908152602001600020600082015181600001556020820151816001015560408201518160020155905050505050565b600860008154809291906001019190505550604051806080016040528060085481526020018481526020018381526020018281525060036000600854815260200190815260200160002060008201518160000155602082015181600101556040820151816002015560608201518160030155905050505050565b6001602052806000526040600020600091509050806000015490806001018054600181600116156101000203166002900480601f016020809104026020016040519081016040528092919081815260200182805460018160011615610100020316600290048015610ea75780601f10610e7c57610100808354040283529160200191610ea7565b820191906000526020600020905b815481529060010190602001808311610e8a57829003601f168201915b505050505090806002018054600181600116156101000203166002900480601f016020809104026020016040519081016040528092919081815260200182805460018160011615610100020316600290048015610f455780601f10610f1a57610100808354040283529160200191610f45565b820191906000526020600020905b815481529060010190602001808311610f2857829003601f168201915b505050505090806003018054600181600116156101000203166002900480601f016020809104026020016040519081016040528092919081815260200182805460018160011615610100020316600290048015610fe35780601f10610fb857610100808354040283529160200191610fe3565b820191906000526020600020905b815481529060010190602001808311610fc657829003601f168201915b505050505090806004018054600181600116156101000203166002900480601f0160208091040260200160405190810160405280929190818152602001828054600181600116156101000203166002900480156110815780601f1061105657610100808354040283529160200191611081565b820191906000526020600020905b81548152906001019060200180831161106457829003601f168201915b5050505050905085565b60046020528060005260406000206000915090508060000154908060010154908060020154905083565b60036020528060005260406000206000915090508060000154908060010154908060020154908060030154905084565b600854600954146110fd576001600a8190555061118f565b60008090506000600190505b600854811161117a576000600190505b600954811161116c5760046000828152602001908152602001600020600001546003600084815260200190815260200160002060010154141561115f5782806001019350505b8080600101915050611119565b508080600101915050611109565b50600854811461118d576001600a819055505b505b565b60095481565b6007600081548092919060010191905055506040518061012001604052808a815260200189815260200188815260200187815260200186815260200185815260200184815260200183815260200182815250600260008b8152602001908152602001600020600082015181600001556020820151816001015560408201518160020155606082015181600301556080820151816004015560a0820151816005015560c0820151816006015560e082015181600701556101008201518160080155905050505050505050505050565b60055481565b6005600081548092919060010191905055506040518060800160405280858152602001848152602001838152602001828152506000808681526020019081526020016000206000820151816000015560208201518160010190805190602001906112d692919061151e565b5060408201518160020190805190602001906112f392919061151e565b50606082015181600301908051906020019061131092919061151e565b5090505050505050565b6000602052806000526040600020600091509050806000015490806001018054600181600116156101000203166002900480601f0160208091040260200160405190810160405280929190818152602001828054600181600116156101000203166002900480156113cc5780601f106113a1576101008083540402835291602001916113cc565b820191906000526020600020905b8154815290600101906020018083116113af57829003601f168201915b505050505090806002018054600181600116156101000203166002900480601f01602080910402602001604051908101604052809291908181526020018280546001816001161561010002031660029004801561146a5780601f1061143f5761010080835404028352916020019161146a565b820191906000526020600020905b81548152906001019060200180831161144d57829003601f168201915b505050505090806003018054600181600116156101000203166002900480601f0160208091040260200160405190810160405280929190818152602001828054600181600116156101000203166002900480156115085780601f106114dd57610100808354040283529160200191611508565b820191906000526020600020905b8154815290600101906020018083116114eb57829003601f168201915b5050505050905084565b60065481565b600a5481565b828054600181600116156101000203166002900490600052602060002090601f016020900481019282601f1061155f57805160ff191683800117855561158d565b8280016001018555821561158d579182015b8281111561158c578251825591602001919060010190611571565b5b50905061159a919061159e565b5090565b6115c091905b808211156115bc5760008160009055506001016115a4565b5090565b9056fea165627a7a723058203b2aae133fb6725a58c6b88213eeaabfbd697bc3aad3d8fb00e545766baeb4730029",
  "source": "pragma solidity ^0.5.0;\r\n\r\ncontract ahack {\r\n    // Model the donors\r\n    struct Donor \r\n\t{\r\n\t\tuint d_id;\r\n\t\tstring name;\r\n\t\tstring phno;\r\n\t\tstring blood_group;\r\n\t}\r\n\tstruct Recpt\r\n\t{\r\n\t\tuint d_id;\r\n\t\tstring name;\r\n\t\tstring phno;\r\n\t\tstring hospital;\r\n\t\tstring blood_group;\r\n\t\t \r\n\t}\r\n\r\n\tstruct BBcount\r\n\t{\r\n\t\tuint bbid;\r\n\t\tuint apos;\r\n\t\tuint bpos;\r\n\t\tuint opos;\r\n\t\tuint abpos;\r\n\t\tuint aneg;\r\n\t\tuint bneg;\r\n\t\tuint abneg;\r\n\t\tuint oneg;\r\n\t\t \r\n\t}\r\n\r\n\tstruct sendLog\r\n\t{\r\n\t\tuint sno;\r\n\t\tuint sdID;\r\n\t\tuint ssbbint;\r\n\t\tuint sdbbint;\r\n\t\t \r\n\r\n\t}\r\n\r\n\tstruct recdLog\r\n\t{\r\n\t\tuint rdID;\r\n\t\tuint rsbbint;\r\n\t\tuint rdbbint;\r\n\t\t \r\n\t}\r\n\r\n\t//creating mapping to access donors\r\n\tmapping(uint => Donor) public donor;\r\n\t//create mapping to access recpt\r\n\tmapping(uint => Recpt) public recpt;\r\n\t//create mapping to access bbcount\r\n\tmapping(uint => BBcount) public bbcount;\r\n\r\n\tmapping(uint => sendLog) public sent;\r\n\tmapping(uint => recdLog) public rec;\r\n\r\n\tuint public donorCount;\r\n\tuint public recptCount;\r\n\tuint public bbcounter;\r\n\tuint public scount;\r\n\tuint public rcount;\r\n\tuint public e;\r\n\r\n    \r\n\t// Constructor\r\n    constructor () public \r\n\t{\r\n\t\t\r\n\r\n\t}\r\n\t//Adding an event to reload the website on adding a new Donor\r\n    event donorAddedEvent (\r\n        uint indexed _dID\r\n    );\r\n\r\n\r\n    function addDonor(uint _dID, string memory _name, string memory _phno, string memory _bloodgroup) public \r\n    {\r\n        donorCount ++;\r\n        donor[_dID] = Donor(_dID, _name , _phno , _bloodgroup );\r\n\r\n        //emit donorAddedEvent(_dID);\r\n    }\r\n\r\n    //func for recpt\r\n    function addRecpt(uint _dID,string memory _name, string memory _phno, string memory _hospital, string memory _bloodGroup) public \r\n    {\r\n        recptCount ++;\r\n        recpt[_dID] = Recpt(_dID ,_name , _phno , _hospital, _bloodGroup);\r\n    }\r\n\r\n    //func to add BB\r\n    function addBBcount(uint _bbid, uint _apos, uint _bpos, uint _opos, uint _abpos, uint _aneg , uint _bneg , uint _abneg, uint _oneg ) public \r\n    {\r\n        bbcounter ++;\r\n        bbcount[_bbid] = BBcount(_bbid, _apos, _bpos, _opos, _abpos, _aneg , _bneg , _abneg, _oneg   );\r\n    }\r\n\r\n    function s(uint _dID, uint _sbbint, uint _dbbint  ) public\r\n    {\r\n    \tscount++;\r\n    \tsent[scount] = sendLog(scount,_dID, _sbbint, _dbbint   );\r\n    }\r\n\r\n    function r(uint _dID, uint _sbbint, uint _dbbint  ) public\r\n    {\r\n    \trcount++;\r\n    \trec[_dID] = recdLog(_dID, _sbbint, _dbbint   );\r\n    }\r\n\r\n    function check() public\r\n    {\r\n    \t\r\n    \tif(rcount!=scount)\r\n    \t\te=1;\r\n    \telse\r\n    \t{\r\n    \t\tuint f=0;\r\n    \t\tfor(uint i=1;i<=scount;i++)\r\n    \t\t{\r\n    \t\t\tfor(uint j=1;j<=rcount;j++)\r\n    \t\t\t{\r\n\r\n    \t\t\t\tif(sent[i].sdID==rec[j].rdID)\r\n    \t\t\t\t{\r\n    \t\t\t\t\tf++;\r\n    \t\t\t\t}\r\n\r\n    \t\t\t}\r\n    \t\t}\r\n    \t\tif(f!=scount)\r\n    \t\t{\r\n    \t\t\te=1;\r\n    \t\t}\r\n    \t}\r\n    }\r\n\r\n    \r\n}",
  "sourcePath": "C:/Users/sanja/ahack/contracts/ahack.sol",
  "compiler": {
    "name": "solc",
    "version": "0.5.8+commit.23d335f2.Emscripten.clang"
  },
  "schemaVersion": "3.0.10",
  "updatedAt": "2019-06-09T07:31:04.163Z",
  "devdoc": {
    "methods": {}
  },
  "userdoc": {
    "methods": {}
  }
}